{
  "_format": "hh-sol-artifact-1",
  "contractName": "HealthRecord",
  "sourceName": "contracts/HealthRecord.sol",
  "abi": [
    {
      "anonymous": false,
      "inputs": [
        {
          "indexed": false,
          "internalType": "string",
          "name": "patientId",
          "type": "string"
        },
        {
          "indexed": false,
          "internalType": "string",
          "name": "fileHash",
          "type": "string"
        },
        {
          "indexed": false,
          "internalType": "address",
          "name": "uploader",
          "type": "address"
        }
      ],
      "name": "FileUploaded",
      "type": "event"
    },
    {
      "inputs": [
        {
          "internalType": "string",
          "name": "patientId",
          "type": "string"
        }
      ],
      "name": "getRecords",
      "outputs": [
        {
          "components": [
            {
              "internalType": "string",
              "name": "patientId",
              "type": "string"
            },
            {
              "internalType": "string",
              "name": "fileHash",
              "type": "string"
            },
            {
              "internalType": "address",
              "name": "uploader",
              "type": "address"
            }
          ],
          "internalType": "struct HealthRecord.Record[]",
          "name": "",
          "type": "tuple[]"
        }
      ],
      "stateMutability": "view",
      "type": "function"
    },
    {
      "inputs": [
        {
          "internalType": "string",
          "name": "",
          "type": "string"
        },
        {
          "internalType": "uint256",
          "name": "",
          "type": "uint256"
        }
      ],
      "name": "records",
      "outputs": [
        {
          "internalType": "string",
          "name": "patientId",
          "type": "string"
        },
        {
          "internalType": "string",
          "name": "fileHash",
          "type": "string"
        },
        {
          "internalType": "address",
          "name": "uploader",
          "type": "address"
        }
      ],
      "stateMutability": "view",
      "type": "function"
    },
    {
      "inputs": [
        {
          "internalType": "string",
          "name": "patientId",
          "type": "string"
        },
        {
          "internalType": "string",
          "name": "fileHash",
          "type": "string"
        }
      ],
      "name": "uploadFile",
      "outputs": [],
      "stateMutability": "nonpayable",
      "type": "function"
    }
  ],
  "bytecode": "0x608060405234801561001057600080fd5b50610c00806100206000396000f3fe608060405234801561001057600080fd5b50600436106100415760003560e01c80633b51650d1461004657806386e80b7114610078578063996d50bf146100a8575b600080fd5b610060600480360381019061005b919061074f565b6100c4565b60405161006f9392919061097d565b60405180910390f35b610092600480360381019061008d91906106a2565b610251565b60405161009f919061095b565b60405180910390f35b6100c260048036038101906100bd91906106e3565b610448565b005b60008280516020810182018051848252602083016020850120818352809550505050505081815481106100f657600080fd5b90600052602060002090600302016000915091505080600001805461011a90610b12565b80601f016020809104026020016040519081016040528092919081815260200182805461014690610b12565b80156101935780601f1061016857610100808354040283529160200191610193565b820191906000526020600020905b81548152906001019060200180831161017657829003601f168201915b5050505050908060010180546101a890610b12565b80601f01602080910402602001604051908101604052809291908181526020018280546101d490610b12565b80156102215780601f106101f657610100808354040283529160200191610221565b820191906000526020600020905b81548152906001019060200180831161020457829003601f168201915b5050505050908060020160009054906101000a900473ffffffffffffffffffffffffffffffffffffffff16905083565b60606000826040516102639190610944565b9081526020016040518091039020805480602002602001604051908101604052809291908181526020016000905b8282101561043d57838290600052602060002090600302016040518060600160405290816000820180546102c490610b12565b80601f01602080910402602001604051908101604052809291908181526020018280546102f090610b12565b801561033d5780601f106103125761010080835404028352916020019161033d565b820191906000526020600020905b81548152906001019060200180831161032057829003601f168201915b5050505050815260200160018201805461035690610b12565b80601f016020809104026020016040519081016040528092919081815260200182805461038290610b12565b80156103cf5780601f106103a4576101008083540402835291602001916103cf565b820191906000526020600020905b8154815290600101906020018083116103b257829003601f168201915b505050505081526020016002820160009054906101000a900473ffffffffffffffffffffffffffffffffffffffff1673ffffffffffffffffffffffffffffffffffffffff1673ffffffffffffffffffffffffffffffffffffffff168152505081526020019060010190610291565b505050509050919050565b6000826040516104589190610944565b908152602001604051809103902060405180606001604052808481526020018381526020013373ffffffffffffffffffffffffffffffffffffffff16815250908060018154018082558091505060019003906000526020600020906003020160009091909190915060008201518160000190805190602001906104dc929190610582565b5060208201518160010190805190602001906104f9929190610582565b5060408201518160020160006101000a81548173ffffffffffffffffffffffffffffffffffffffff021916908373ffffffffffffffffffffffffffffffffffffffff16021790555050507f665e30a79237e64e85f7d6a64750fcffa992533d43bca672d982ff3d38ef697a8282336040516105769392919061097d565b60405180910390a15050565b82805461058e90610b12565b90600052602060002090601f0160209004810192826105b057600085556105f7565b82601f106105c957805160ff19168380011785556105f7565b828001600101855582156105f7579182015b828111156105f65782518255916020019190600101906105db565b5b5090506106049190610608565b5090565b5b80821115610621576000816000905550600101610609565b5090565b6000610638610633846109f3565b6109c2565b90508281526020810184848401111561065057600080fd5b61065b848285610ad0565b509392505050565b600082601f83011261067457600080fd5b8135610684848260208601610625565b91505092915050565b60008135905061069c81610bb3565b92915050565b6000602082840312156106b457600080fd5b600082013567ffffffffffffffff8111156106ce57600080fd5b6106da84828501610663565b91505092915050565b600080604083850312156106f657600080fd5b600083013567ffffffffffffffff81111561071057600080fd5b61071c85828601610663565b925050602083013567ffffffffffffffff81111561073957600080fd5b61074585828601610663565b9150509250929050565b6000806040838503121561076257600080fd5b600083013567ffffffffffffffff81111561077c57600080fd5b61078885828601610663565b92505060206107998582860161068d565b9150509250929050565b60006107af83836108ed565b905092915050565b6107c081610a94565b82525050565b6107cf81610a94565b82525050565b60006107e082610a33565b6107ea8185610a56565b9350836020820285016107fc85610a23565b8060005b85811015610838578484038952815161081985826107a3565b945061082483610a49565b925060208a01995050600181019050610800565b50829750879550505050505092915050565b600061085582610a3e565b61085f8185610a67565b935061086f818560208601610adf565b61087881610ba2565b840191505092915050565b600061088e82610a3e565b6108988185610a78565b93506108a8818560208601610adf565b6108b181610ba2565b840191505092915050565b60006108c782610a3e565b6108d18185610a89565b93506108e1818560208601610adf565b80840191505092915050565b6000606083016000830151848203600086015261090a828261084a565b91505060208301518482036020860152610924828261084a565b915050604083015161093960408601826107b7565b508091505092915050565b600061095082846108bc565b915081905092915050565b6000602082019050818103600083015261097581846107d5565b905092915050565b600060608201905081810360008301526109978186610883565b905081810360208301526109ab8185610883565b90506109ba60408301846107c6565b949350505050565b6000604051905081810181811067ffffffffffffffff821117156109e9576109e8610b73565b5b8060405250919050565b600067ffffffffffffffff821115610a0e57610a0d610b73565b5b601f19601f8301169050602081019050919050565b6000819050602082019050919050565b600081519050919050565b600081519050919050565b6000602082019050919050565b600082825260208201905092915050565b600082825260208201905092915050565b600082825260208201905092915050565b600081905092915050565b6000610a9f82610aa6565b9050919050565b600073ffffffffffffffffffffffffffffffffffffffff82169050919050565b6000819050919050565b82818337600083830152505050565b60005b83811015610afd578082015181840152602081019050610ae2565b83811115610b0c576000848401525b50505050565b60006002820490506001821680610b2a57607f821691505b60208210811415610b3e57610b3d610b44565b5b50919050565b7f4e487b7100000000000000000000000000000000000000000000000000000000600052602260045260246000fd5b7f4e487b7100000000000000000000000000000000000000000000000000000000600052604160045260246000fd5b6000601f19601f8301169050919050565b610bbc81610ac6565b8114610bc757600080fd5b5056fea26469706673582212201d674355fb9b550aa754faa56bbabe59781797936b54e605fd629709bf7bd3ed64736f6c63430008000033",
  "linkReferences": {},
  "deployedLinkReferences": {}
}